S00E00006C61627335322E737265630D
S11300000C942A000C9447000C9447000C9447006D
S11300100C9447000C9447000C9447000C94470040
S11300200C9447000C9447000C9449000C9447002E
S11300300C9447000C9447000C9447000C94470020
S11300400C9447000C9447000C9447000C94470010
S11300500C94470011241FBECFE5D8E0DEBFCDBF0E
S113006010E0A0E6B0E0E2EBF6E002C005900D92ED
S1130070AA36B107D9F720E0AAE6B0E001C01D9284
S1130080AE3BB207E1F70E9416030C9457030C949D
S113009000001F920F9200905F000F9211242F9383
S11300A03F938F939F93EF93FF93CF93DF9300D06E
S11300B01F92CDB7DEB719826CC08981882F90E07A
S11300C0880F991F880F991F880F991F82599F4F76
S11300D09B838A838A819B81FC018281938100971F
S11300E069F18A819B81FC01848195819C01215065
S11300F031098A819B81FC01358324838A819B8118
S1130100FC0184819581009709F040C08A819B811C
S1130110FC01228133818A819B81FC013583248304
S11301208A819B81FC01868197819C012F5F3F4FCF
S11301308A819B81FC013783268328C08A819B8125
S1130140FC0184819581009709F18A819B81FC01DE
S1130150848195819C01215031098A819B81FC0114
S1130160358324838A819B81FC0184819581009756
S113017069F48A819B81FC01868197819C012F5FB0
S11301803F4F8A819B81FC013783268389818F5F5E
S1130190898380916C009981981708F48ECF0F9011
S11301A00F900F90DF91CF91FF91EF919F918F91DD
S11301B03F912F910F9000925F000F901F90189520
S11301C00F931F93CF93DF93CDB7DEB72A970FB664
S11301D0F894DEBF0FBECDBF9A8389834B835C83C3
S11301E06D837E830F83188729873A8780916C00FB
S11301F0882F90E001968A3091050CF053C0F89452
S113020080916C00882F90E0880F991F880F991FA8
S1130210880F991F82599F4F29813A81FC013183AC
S1130220208380916C00882F90E02B813C81880F83
S1130230991F880F991F880F991F8E589F4FFC0193
S11302403183208380916C00882F90E0880F991F60
S1130250880F991F880F991F8C589F4FFC0111829A
S1130260108240916C00242F30E08F819885A985FD
S1130270BA850097A105B10519F08B819C8102C054
S113028080E090E0220F331F220F331F220F331F11
S113029020593F4FF90191838083842F8F5F80938E
S11302A06C0078942A960FB6F894DEBF0FBECDBFCB
S11302B0DF91CF911F910F910895CF93DF93CDB725
S11302C0DEB789E590E022E0FC01208383E590E03D
S11302D023E0FC0120838CE590E02AEFFC012083DD
S11302E07894DF91CF910895CF93DF931F92CDB788
S11302F0DEB710926C0019823BC08981882F90E090
S1130300880F991F880F991F880F991F82599F4F33
S1130310FC01118210828981882F90E0880F991F37
S1130320880F991F880F991F80599F4FFC011182D4
S113033010828981882F90E0880F991F880F991F58
S1130340880F991F8E589F4FFC011182108289815A
S1130350882F90E0880F991F880F991F880F991F85
S11303608C589F4FFC011182108289818F5F898391
S113037089818A3010F20F90DF91CF910895CF9345
S1130380DF931F92CDB7DEB74AC0198242C089817C
S1130390882F90E0880F991F880F991F880F991F45
S11303A08C589F4FFC0180819181009779F189815C
S11303B0882F90E0880F991F880F991F880F991F25
S11303C082599F4FFC0180819181FC010995F89429
S11303D08981882F90E09C01220F331F220F331F45
S11303E0220F331F2C583F4FF901208131812150B6
S11303F03109880F991F880F991F880F991F8C58EE
S11304009F4FFC0131832083789409C089818F5FD9
S1130410898380916C009981981708F4B8CF8091F2
S11304206C00882309F0B1CF0F90DF91CF9108952C
S1130430CF93DF93CDB7DEB780916A0090916B00C4
S11304408F3027E2920729F410926B0010926A0011
S113045009C080916A0090916B00019690936B00A3
S113046080936A00DF91CF910895CF93DF93CDB746
S1130470DEB788E390E0DC011C928BE390E0FC01A2
S1130480108280916D00882319F588E390E02EEFA7
S1130490DC012C934BE350E080916A0090916B0057
S11304A09695879596958795969587959C01A5EC45
S11304B0B0E20E944B03929582958F7089279F70BA
S11304C08927805A9F4FFC018081DA018C939FC059
S11304D080916D008130D1F588E390E02DEFFC012F
S11304E02083EBE3F0E040916A0050916B00CA0175
S11304F09695879596958795969587959C01A5ECF5
S1130500B0E20E944B03929582958F7089279F7069
S1130510892768EE73E0869F9001879F300D969F30
S1130520300D1124CA01821B930B969587959695DD
S113053087959C01ABE7B4E10E944B0396958795A0
S1130540805A9F4FDC018C91808361C080916D0043
S1130550823089F588E390E02BEFFC012083EBE304
S1130560F0E040916A0050916B00CA01969587951E
S1130570969587959C01ABE7B4E10E944B03969551
S1130580879564E6689F9001699F300D1124CA0124
S1130590821B930B9C01ADECBCEC0E944B03969523
S11305A087959695879596958795805A9F4FDC01F8
S11305B08C9180832CC080916D00833041F588E359
S11305C090E027EFFC012083EBE3F0E040916A0028
S11305D050916B009A01ADECBCEC0E944B039695D4
S11305E087959695879596958795880F991F9C0171
S11305F0220F331F220F331F820F931F9A01281BD0
S1130600390BC901805A9F4FDC018C918083809102
S11306106D008F5F80936D0080916D0083708823DF
S113062011F410926D00DF91CF9108950F931F93F1
S1130630CF93DF93CDB7DEB78AE390E02FEFFC01D1
S1130640208387E390E02FEFFC0120830E94740154
S113065001E010E020E030E048EE53E060E070E0BC
S113066088E192E00E94E00001E010E020E030E048
S113067044E050E060E070E085E392E00E94E00036
S11306800E945D010E94BF0180E090E0DF91CF9164
S11306901F910F910895A29FB001B39FC001A39F22
S11306A001D0B29F700D811D1124911D0895F894FD
S10506B0FFCF76
S10D06B2C0F9A4B0999282F8809078
S9030000FC
