S00E00006C61627336312E737265630D
S11300000C942A000C9434000C9434000C943400A6
S11300100C9434000C9434000C9434000C9434008C
S11300200C9434000C9434000C9434000C9434007C
S11300300C9434000C9434000C9434000C9434006C
S11300400C9434000C9434000C9434000C9434005C
S11300500C94340011241FBECFE5D8E0DEBFCDBF21
S11300600E9485000C9495000C940000CF93DF93BC
S113007000D0CDB7DEB79A83898380E490E02981EC
S11300803A81232F3327FC01208389E290E02981E0
S1130090FC0120838AE290E028E1FC01208380E4D3
S11300A090E02EE8FC0120830F900F90DF91CF9118
S11300B00895CF93DF931F92CDB7DEB789830000F5
S11300C08BE290E0FC018081882F90E08072992778
S11300D00097B1F38CE290E02981FC0120830F901A
S11300E0DF91CF910895CF93DF93CDB7DEB70000B2
S11300F08BE290E0FC0180818823D4F78CE290E0CD
S1130100FC018081DF91CF910895CF93DF931F92FB
S1130110CDB7DEB787E690E00E9436000E947300F8
S1110120898389810E945900F9CFF894FFCF9A
S9030000FC
