S01200004B616C6B756C61746F722E73726563F8
S11300000C942A000C9447000C9447000C9447006D
S11300100C9447000C9447000C9447000C94470040
S11300200C9447000C9447000C949F070C944700D1
S11300300C9447000C94410D0C9447000C94470019
S11300400C9447000C9447000C9447000C94470010
S11300500C94470011241FBECFE5D8E0DEBFCDBF0E
S113006010E0A0E6B0E0EEE3F2E202C005900D92EB
S1130070AE37B107D9F720E0AEE7B0E001C01D927A
S1130080A13EB207E1F70E94490F0C941D110C9494
S11300900000CF93DF931F92CDB7DEB7898388E347
S11300A090E028E330E0F90120812061FC01208305
S11300B088E390E028E330E0F9012081322F307F9B
S11300C029812F70232BFC01208388E390E028E30F
S11300D030E0F90120812F7EFC0120830F90DF9115
S11300E0CF9108950F931F93CF93DF93CDB7DEB7CE
S11300F069970FB6F894DEBF0FBECDBF898F898D87
S113010082958F700E944900898D0E94490080E089
S113011090E0A8E4B2E489839A83AB83BC832BEA9E
S11301203AEA4AEA50E469817A818B819C810E948F
S11301309210DC01CB018D839E83AF83B88720E0CE
S113014030E040E85FE36D817E818F8198850E9475
S1130150810F88231CF481E0898797C020E030E078
S11301604FE753E46D817E818F8198850E948E10C4
S113017018160CF081C020E030E04AE754E46981AD
S11301807A818B819C810E94850FDC01CB018A8757
S11301909B87AC87BD8720E030E04AE755E46A8559
S11301A07B858C859D850E949210DC01CB018E8716
S11301B09F87A88BB98B20E030E040E85FE36E8531
S11301C07F85888999890E94810F88232CF481E096
S11301D090E09B8B8A8B42C020E03FEF4FE757E4CF
S11301E06E857F85888999890E948E10181664F51A
S11301F020E030E040E251E46A857B858C859D8572
S11302000E949210DC01CB01BC01CD010E94ED0FD4
S1130210DC01CB019B8B8A8B12C080E991E09D8B22
S11302208C8B8C899D898C01C8010197F1F78C0115
S11302301D8B0C8B8A899B8901979B8B8A8B8A895E
S11302409B89009751F728C06E857F858889998995
S11302500E94ED0FDC01CB019B8B8A8B8A899B89E1
S11302609F8B8E8B8E899F898C01C8010197F1F732
S11302708C011F8B0E8B10C06D817E818F819885C0
S11302800E94ED0FDC01CB0189878985888F888DD9
S1130290182F1A95F1F7188F69960FB6F894DEBFE8
S11302A00FBECDBFDF91CF911F910F910895CF93D2
S11302B0DF931F92CDB7DEB7898388E390E028E30C
S11302C030E0F90120812F7DFC01208389810E9487
S11302D072000F90DF91CF910895CF93DF9300D0F8
S11302E0CDB7DEB79A83898388E390E028E330E0D2
S11302F0F90120812062FC0120830BC089819A814D
S1130300FC0180810E94720089819A8101969A83FE
S1130310898389819A81FC018081882379F70F90F0
S11303200F90DF91CF9108950F931F93CF93DF9395
S1130330CDB7DEB7C058D1090FB6F894DEBF0FBEF3
S1130340CDBF87E390E02FEFFC01208388E390E0AA
S1130350FC01108280E090E0A0E7B1E48B839C83F1
S1130360AD83BE8320E030E04AE755E46B817C81B5
S11303708D819E810E949210DC01CB018F8398872E
S1130380A987BA8720E030E040E85FE36F81788591
S113039089859A850E94810F88232CF481E090E05E
S11303A09C878B8742C020E03FEF4FE757E46F8183
S11303B0788589859A850E948E10181664F520E048
S11303C030E040E251E46B817C818D819E810E940A
S11303D09210DC01CB01BC01CD010E94ED0FDC01C8
S11303E0CB019C878B8712C080E991E09E878D8723
S11303F08D859E858C01C8010197F1F78C011E87BC
S11304000D878B859C8501979C878B878B859C8525
S1130410009751F717C06F81788589859A850E9466
S1130420ED0FDC01CB019C878B878B859C85988B9A
S11304308F878F8598898C01F8013197F1F78F01A7
S1130440188B0F871A82198280C083E00E944900AA
S113045080E090E0A0EAB0E4898B9A8BAB8BBC8BF4
S113046020E030E04AE755E469897A898B899C89E0
S11304700E949210DC01CB018D8B9E8BAF8BB88FC9
S113048020E030E040E85FE36D897E898F89988DB4
S11304900E94810F88232CF481E090E09A8F898F49
S11304A042C020E03FEF4FE757E46D897E898F8992
S11304B0988D0E948E10181664F520E030E040E21A
S11304C051E469897A898B899C890E949210DC01A4
S11304D0CB01BC01CD010E94ED0FDC01CB019A8F51
S11304E0898F12C080E991E09C8F8B8F8B8D9C8DBE
S11304F08C01C8010197F1F78C011C8F0B8F898D3A
S11305009A8D01979A8F898F898D9A8D009751F7CB
S113051017C06D897E898F89988D0E94ED0FDC014B
S1130520CB019A8F898F898D9A8D9E8F8D8F8D8D1A
S11305309E8D8C01F8013197F1F78F011E8F0D8F7D
S113054089819A8101969A83898389819A818330EA
S113055091050CF47ACF82E00E94490080E090E09B
S1130560A0E8BFE38F8F98A3A9A3BAA320E030E04B
S11305704AE755E46F8D78A189A19AA10E9492104F
S1130580DC01CB018BA39CA3ADA3BEA320E030E090
S113059040E85FE36BA17CA18DA19EA10E94810F25
S11305A088232CF481E090E098A78FA342C020E038
S11305B03FEF4FE757E46BA17CA18DA19EA10E9460
S11305C08E10181664F520E030E040E251E46F8D9F
S11305D078A189A19AA10E949210DC01CB01BC01EF
S11305E0CD010E94ED0FDC01CB0198A78FA312C0AF
S11305F080E991E09AA789A789A59AA58C01C801E9
S11306000197F1F78C011AA709A78FA198A5019763
S113061098A78FA38FA198A5009751F717C06BA136
S11306207CA18DA19EA10E94ED0FDC01CB0198A7B6
S11306308FA38FA198A59CA78BA78BA59CA58C01A4
S1130640F8013197F1F78F011CA70BA788E20E94EC
S1130650570180E090E0A0E0B0E48DA79EA7AFA78B
S1130660B8AB20E030E04AE755E46DA57EA58FA540
S113067098A90E949210DC01CB0189AB9AABABAB79
S1130680BCAB20E030E040E85FE369A97AA98BA91C
S11306909CA90E94810F88232CF481E090E09EABFA
S11306A08DAB42C020E03FEF4FE757E469A97AA938
S11306B08BA99CA90E948E10181664F520E030E0E6
S11306C040E251E46DA57EA58FA598A90E949210E1
S11306D0DC01CB01BC01CD010E94ED0FDC01CB019B
S11306E09EAB8DAB12C080E991E098AF8FAB8FA920
S11306F098AD8C01C8010197F1F78C0118AF0FABCD
S11307008DA99EA901979EAB8DAB8DA99EA900973B
S113071051F717C069A97AA98BA99CA90E94ED0F6A
S1130720DC01CB019EAB8DAB8DA99EA99AAF89AF9D
S113073089AD9AAD8C01F8013197F1F78F011AAFA9
S113074009AF88E00E94570180E090E0A0E0B0E4A7
S11307508BAF9CAFADAFBEAF8E01015C1F4F20E0ED
S113076030E04AE755E46BAD7CAD8DAD9EAD0E94A3
S11307709210DC01CB01F80180839183A283B383BF
S1130780CE01CF9620E030E040E85FE3FC016081D9
S11307907181828193810E94810F88234CF4CE0160
S11307A08D5B9F4F21E030E0FC01318320836AC0E0
S11307B0CE01CF9620E03FEF4FE757E4FC01608184
S11307C07181828193810E948E1018160CF049C0A9
S11307D020E030E040E251E46BAD7CAD8DAD9EADE8
S11307E00E949210DC01CB018E010D5B1F4FBC01F6
S11307F0CD010E94ED0FDC01CB01F80191838083D0
S113080027C0CE018B5B9F4F20E931E0FC0131838F
S11308102083CE018B5B9F4FFC01808191818C01F1
S1130820C8010197F1F78C01CE018B5B9F4FFC014E
S113083011830083CE018D5B9F4F9E012D5B3F4F43
S1130840F9012081318121503109FC013183208358
S1130850CE018D5B9F4FFC0180819181009789F6C9
S11308602EC08E010D5B1F4FCE01CF96FC0160811F
S11308707181828193810E94ED0FDC01CB01F8012B
S113088091838083CE01895B9F4F9E012D5B3F4FF7
S1130890F90120813181FC0131832083CE01895B00
S11308A09F4FFC01808191818C01C8010197F1F770
S11308B08C01CE01895B9F4FFC011183008381E091
S11308C00E9457019E01275B3F4F80E090E0A0E02B
S11308D0B0E4F90180839183A283B3838E01035B27
S11308E01F4FCE01875B9F4F20E030E04AE755E47D
S11308F0FC0160817181828193810E949210DC01EC
S1130900CB01F80180839183A283B383CE01835BFF
S11309109F4F20E030E040E85FE3FC01608171819B
S1130920828193810E94810F88234CF4CE018F5AD7
S11309309F4F21E030E0FC013183208370C0CE0161
S1130940835B9F4F20E03FEF4FE757E4FC0160815A
S11309507181828193810E948E1018160CF04DC013
S1130960CE01875B9F4F20E030E040E251E4FC0180
S113097060817181828193810E949210DC01CB019C
S11309808E010F5A1F4FBC01CD010E94ED0FDC01F7
S1130990CB01F8019183808327C0CE018D5A9F4FEC
S11309A020E931E0FC0131832083CE018D5A9F4F31
S11309B0FC01808191818C01C8010197F1F78C01C0
S11309C0CE018D5A9F4FFC0111830083CE018F5AB3
S11309D09F4F9E012F5A3F4FF901208131812150B1
S11309E03109FC0131832083CE018F5A9F4FFC01D2
S11309F080819181009789F62FC08E010F5A1F4F75
S1130A00CE01835B9F4FFC01608171818281938160
S1130A100E94ED0FDC01CB01F80191838083CE01AC
S1130A208B5A9F4F9E012F5A3F4FF90120813181EC
S1130A30FC0131832083CE018B5A9F4FFC018081BE
S1130A4091818C01C8010197F1F78C01CE018B5A79
S1130A509F4FFC011183008386E00E9457019E0191
S1130A60295A3F4F80E090E0A0E0B0E4F901808390
S1130A709183A283B3838E01055A1F4FCE01895AF5
S1130A809F4F20E030E04AE755E4FC01608171812A
S1130A90828193810E949210DC01CB01F801808352
S1130AA09183A283B383CE01855A9F4F20E030E027
S1130AB040E85FE3FC0160817181828193810E943F
S1130AC0810F88234CF4CE01815A9F4F21E030E0FE
S1130AD0FC013183208370C0CE01855A9F4F20E0F2
S1130AE03FEF4FE757E4FC0160817181828193817C
S1130AF00E948E1018160CF04DC0CE01895A9F4FDB
S1130B0020E030E040E251E4FC01608171818281A7
S1130B1093810E949210DC01CB018E01015A1F4F78
S1130B20BC01CD010E94ED0FDC01CB01F8019183E2
S1130B30808327C0CE018F599F4F20E931E0FC010B
S1130B4031832083CE018F599F4FFC018081918195
S1130B508C01C8010197F1F78C01CE018F599F4F89
S1130B60FC0111830083CE01815A9F4F9E01215ABB
S1130B703F4FF9012081318121503109FC0131833A
S1130B802083CE01815A9F4FFC018081918100977F
S1130B9089F62FC08E01015A1F4FCE01855A9F4FEF
S1130BA0FC0160817181828193810E94ED0FDC01DF
S1130BB0CB01F80191838083CE018D599F4F9E0113
S1130BC0215A3F4FF90120813181FC013183208377
S1130BD0CE018D599F4FFC01808191818C01C80108
S1130BE00197F1F78C01CE018D599F4FFC011183C0
S1130BF000838FE00E9457019E012B593F4F80E0F4
S1130C0090E0A0E0B0E4F90180839183A283B383F0
S1130C108E0107591F4FCE018B599F4F20E030E0C2
S1130C204AE755E4FC0160817181828193810E94CD
S1130C309210DC01CB01F80180839183A283B383FA
S1130C40CE0187599F4F20E030E040E85FE3FC018C
S1130C5060817181828193810E94810F88234CF489
S1130C60CE0183599F4F21E030E0FC013183208382
S1130C7070C0CE0187599F4F20E03FEF4FE757E404
S1130C80FC0160817181828193810E948E1018160B
S1130C900CF04DC0CE018B599F4F20E030E040E274
S1130CA051E4FC0160817181828193810E949210E0
S1130CB0DC01CB018E0103591F4FBC01CD010E9401
S1130CC0ED0FDC01CB01F8019183808327C0CE01B5
S1130CD081599F4F20E931E0FC0131832083CE010B
S1130CE081599F4FFC01808191818C01C80101973A
S1130CF0F1F78C01CE0181599F4FFC0111830083D0
S1130D00CE0183599F4F9E0123593F4FF901208102
S1130D10318121503109FC0131832083CE01835973
S1130D209F4FFC0180819181009789F62FC08E012D
S1130D3003591F4FCE0187599F4FFC016081718178
S1130D40828193810E94ED0FDC01CB01F801918334
S1130D508083CE018F589F4F9E0123593F4FF90145
S1130D6020813181FC0131832083CE018F589F4F34
S1130D70FC01808191818C01C8010197F1F78C01FC
S1130D80CE018F589F4FFC011183008381E80E949C
S1130D9057019E012D583F4F80E090E0A8E4B2E453
S1130DA0F90180839183A283B3838E0109581F4F75
S1130DB0CE018D589F4F20E030E04AE755E4FC0116
S1130DC060817181828193810E949210DC01CB0148
S1130DD0F80180839183A283B383CE0189589F4F06
S1130DE020E030E040E85FE3FC01608171818281B2
S1130DF093810E94810F88234CF4CE0185589F4F24
S1130E0021E030E0FC013183208370C0CE01895899
S1130E109F4F20E03FEF4FE757E4FC016081718171
S1130E20828193810E948E1018160CF04DC0CE0161
S1130E308D589F4F20E030E040E251E4FC01608196
S1130E407181828193810E949210DC01CB018E0119
S1130E5005581F4FBC01CD010E94ED0FDC01CB01F1
S1130E60F8019183808327C0CE0183589F4F20E9E6
S1130E7031E0FC0131832083CE0183589F4FFC0174
S1130E80808191818C01C8010197F1F78C01CE0119
S1130E9083589F4FFC0111830083CE0185589F4FD7
S1130EA09E0125583F4FF90120813181215031099C
S1130EB0FC0131832083CE0185589F4FFC01808142
S1130EC09181009789F62FC08E0105581F4FCE01DE
S1130ED089589F4FFC0160817181828193810E94B6
S1130EE0ED0FDC01CB01F80191838083CE018158A1
S1130EF09F4F9E0125583F4FF90120813181FC010C
S1130F0031832083CE0181589F4FFC0180819181E0
S1130F108C01C8010197F1F78C01CE0181589F4FD4
S1130F20FC0111830083C058DF4F0FB6F894DEBF75
S1130F300FBECDBFDF91CF911F910F9108951F92E6
S1130F400F9200905F000F9211242F933F934F93C1
S1130F505F936F937F938F939F93AF93BF93EF931D
S1130F60FF93CF93DF9300D01F92CDB7DEB71982E2
S1130F706CC08981882F90E0880F991F880F991F72
S1130F80880F991F80579F4F9B838A838A819B81F7
S1130F90FC0182819381009769F18A819B81FC0124
S1130FA0848195819C01215031098A819B81FC01B6
S1130FB0358324838A819B81FC01848195810097F8
S1130FC009F040C08A819B81FC01228133818A819E
S1130FD09B81FC01358324838A819B81FC0186816A
S1130FE097819C012F5F3F4F8A819B81FC0137834E
S1130FF0268328C08A819B81FC0184819581009786
S113100009F18A819B81FC01848195819C01215095
S113101031098A819B81FC01358324838A819B81E8
S1131020FC0184819581009769F48A819B81FC018C
S1131030868197819C012F5F3F4F8A819B81FC01B0
S11310403783268389818F5F898380918C0099817E
S1131050981708F48ECF0E945A0E0F900F900F909D
S1131060DF91CF91FF91EF91BF91AF919F918F91BC
S11310707F916F915F914F913F912F910F900092CB
S11310805F000F901F9018950F931F93CF93DF93DA
S1131090CDB7DEB72A970FB6F894DEBF0FBECDBF2B
S11310A09A8389834B835C836D837E830F83188744
S11310B029873A8780918C00882F90E001968A30A6
S11310C091050CF053C0F89480918C00882F90E027
S11310D0880F991F880F991F880F991F80579F4F5A
S11310E029813A81FC013183208380918C00882FEF
S11310F090E02B813C81880F991F880F991F880FDE
S1131100991F8C569F4FFC013183208380918C0062
S1131110882F90E0880F991F880F991F880F991FB7
S11311208A569F4FFC011182108240918C00242F1B
S113113030E08F819885A985BA850097A105B1050E
S113114019F08B819C8102C080E090E0220F331F54
S1131150220F331F220F331F2E563F4FF901918365
S11311608083842F8F5F80938C0078942A960FB6A7
S1131170F894DEBF0FBECDBFDF91CF911F910F91C9
S11311800895CF93DF93CDB7DEB789E590E022E0F1
S1131190FC01208383E590E023E0FC0120838CE5BF
S11311A090E02AEFFC0120837894DF91CF91089599
S11311B0CF93DF931F92CDB7DEB710928C001982C4
S11311C03BC08981882F90E0880F991F880F991F51
S11311D0880F991F80579F4FFC01118210828981CB
S11311E0882F90E0880F991F880F991F880F991FE7
S11311F08E569F4FFC01118210828981882F90E0C6
S1131200880F991F880F991F880F991F8C569F4F1D
S1131210FC01118210828981882F90E0880F991F28
S1131220880F991F880F991F8A569F4FFC011182BE
S1131230108289818F5F898389818A3010F20F90AF
S1131240DF91CF910895CF93DF931F92CDB7DEB78F
S11312504AC0198242C08981882F90E0880F991F63
S1131260880F991F880F991F8A569F4FFC01808110
S11312709181009779F18981882F90E0880F991FD7
S1131280880F991F880F991F80579F4FFC018081F9
S11312909181FC010995F8948981882F90E09C0143
S11312A0220F331F220F331F220F331F2A563F4FA3
S11312B0F9012081318121503109880F991F880F4C
S11312C0991F880F991F8A569F4FFC0131832083F1
S11312D0789409C089818F5F898380918C0099817A
S11312E0981708F4B8CF80918C00882309F0B1CF07
S11312F00F90DF91CF910895CF93DF9300D0CDB7B6
S1131300DEB79A83898389819A818B32910519F496
S113131080E090E019C089819A818D32910519F499
S113132081E090E011C089819A818A32910519F493
S113133082E090E009C089819A818F32910519F485
S113134083E090E001C000C00F900F90DF91CF9137
S11313500895CF93DF9300D000D000D0CDB7DEB78F
S11313609A8389837C836B835E834D838B819C8189
S1131370009739F429813A818D819E81820F931FD0
S113138030C08B819C818130910549F429813A8157
S11313908D819E81A901481B590BCA0122C08B81F2
S11313A09C818230910561F449815A812D813E816D
S11313B0429FC001439F900D529F900D112411C074
S11313C08B819C818330910551F489819A812D818F
S11313D03E81B9010E94F5109B01C90102C080E061
S11313E090E026960FB6F894DEBF0FBECDBFDF9116
S11313F0CF910895CF93DF931F92CDB7DEB7898342
S11314008981882F90E0C0970F90DF91CF91089544
S1131410CF93DF9300D0CDB7DEB79A83898380E47E
S113142090E029813A81232F3327FC01208389E22C
S113143090E02981FC0120838AE290E028E1FC010C
S1131440208380E490E02EE8FC0120838AE290E08F
S11314502AE230E0F90120812068FC0120830F900A
S11314600F90DF91CF910895CF93DF93CDB7DEB77F
S1131470AC970FB6F894DEBF0FBECDBF8BE390E000
S1131480FC0110828AE390E02FE0FC0120838BE3CF
S113149090E020EFFC0120831A82198205C0898123
S11314A09A8101969A83898389819A8180319105F1
S11314B0B4F389E390E0FC018081803E39F483E059
S11314C090E090936B0080936A002BC089E390E0D6
S11314D0FC018081803D39F482E090E090936B00C0
S11314E080936A001EC089E390E0FC018081803B08
S11314F039F481E090E090936B0080936A0011C00E
S113150089E390E0FC018081803729F410926B001C
S113151010926A0006C08FEF9FEF90936B00809348
S11315206A008BE390E0FC0110828AE390E020EFF4
S1131530FC0120838BE390E02FE0FC0120831C82DC
S11315401B8205C08B819C8101969C838B838B813C
S11315509C8180319105B4F389E390E0FC018081A2
S11315608E3039F483E090E090936D0080936C00AA
S11315702BC089E390E0FC0180818D3039F482E056
S113158090E090936D0080936C001EC089E390E01E
S1131590FC0180818B3039F481E090E090936D0000
S11315A080936C0011C089E390E0FC018081873056
S11315B029F410926D0010926C0006C08FEF9FEF1B
S11315C090936D0080936C0080916A0090916B0001
S11315D09C01220F331F220F331F80916C009091C6
S11315E06D00820F931F9E878D8780916C00909170
S11315F06D008F3FFFEF9F0709F434C280916A00AA
S113160090916B008F3F2FEF920709F42BC28091CA
S11316108D00882309F02BC280918200843009F563
S113162081E00E94570110927F0010927E00109278
S11316308100109280008FEF8093E00010928E0062
S113164010928200109286001092850010928800F9
S11316501092870010928F001092890010928A00D5
S113166007C281E080938D008D859E8582599F4FAE
S1131670FC018081882F90E0988B8F878091820075
S1131680882309F044C08F85988980339105A4F19B
S11316908F8598898A3391057CF581E080938F004A
S11316A080917E0090917F00880F991F9C01220FEA
S11316B0331F220F331F820F931F90937F00809359
S11316C07E008F850E94FA099C0180917E00909192
S11316D07F00820F931F90937F0080937E008F85FD
S11316E0898B1A8ACE0141960E946D0180918E00E9
S11316F08F5F80938E000BC080918F00882309F444
S1131700B4C181E08093820089E08093E0008091FD
S11317108200813009F058C08F8598898033910503
S11317205CF08F8598898A33910534F482E0809344
S1131730820010928F0048C08091E000893099F4B3
S11317408F8598890E947C098093E0008F858B8B1C
S11317501C8ACE0143960E946D0180918E008F5F9A
S113176080938E0031C080E10E9457018F858D8B5C
S11317701E8A8F8598898B32910571F48091E000DF
S1131780882331F481E08093E0008DE28D8B04C0E6
S11317901092E0008BE28D8B8F8598898A329105B7
S11317A079F48091E000823031F483E08093E000AA
S11317B08FE28D8B05C082E08093E0008AE28D8BFE
S11317C0CE0145960E946D0180918200823009F01D
S11317D04EC18F85988980339105A4F18F859889AE
S11317E08A3391057CF581E080938F00809180009D
S11317F090918100880F991F9C01220F331F220FA3
S1131800331F820F931F90938100809380008F85F4
S11318100E94FA099C018091800090918100820FBE
S1131820931F90938100809380008F858F8B188EF7
S1131830CE0147960E946D0180918E008F5F809348
S11318408E000FC18F8598898D33910509F00FC1E2
S113185080918F00882309F40BC18DE3898F1A8E40
S1131860CE0149960E946D0180918E008F5F809316
S11318708E0080E28B8F1C8E1E821D8209C0CE01D9
S11318804B960E946D018D819E8101969E838D836E
S113189080918E00882F90E028E230E0281B390BDD
S11318A08D819E818217930754F310928A001092BF
S11318B0890010928B008091E000833091F4809134
S11318C0800090918100009761F41092860010923C
S11318D08500109288001092870081E080938B002D
S11318E0C0C040918000509181008091E000282F79
S11318F030E080917E0090917F00B9010E94A90997
S113190090938600809385004091800050918100DF
S11319108091E000282F30E080917E0090917F003C
S1131920B9010E94A909909388008093870080914F
S113193085009091860098878F831A8619861C8665
S11319401B860FC09E01235E3F4F8B859C85820FB3
S1131950931F20E2FC0120838B859C8501969C8744
S11319608B878B859C858031910564F380918500FC
S113197090918600992364F58F819885919581953E
S1131980910998878F8324C02EE030E089859A8559
S1131990281B390B8F8198854AE050E0BA010E94D8
S11319A0F510482F405DCE014D96820F931FFC0128
S11319B040838F8198852AE030E0B9010E94F510B8
S11319C09B0138872F8389859A8501969A87898711
S11319D08F81988518161906BCF280918500909124
S11319E08600992384F42EE030E089859A85A90144
S11319F0481B590BCA019E01235E3F4F820F931F60
S1131A002DE2FC0120831CA6CE014D960E946D019F
S1131A1084E08093820080918700909188009923CC
S1131A2074F481E08093890080918700909188000C
S1131A309195819591099093880080938700809176
S1131A408700909188008031F7E29F0784F08FE04F
S1131A5097E2909388008093870081E080938A00C6
S1131A6006C005C010928D0003C0000001C0000034
S1131A70AC960FB6F894DEBF0FBECDBFDF91CF9109
S1131A8008951F920F9200905F000F9211242F93DC
S1131A903F934F935F936F937F938F939F93AF93F2
S1131AA0BF93EF93FF93CF93DF931F92CDB7DEB72E
S1131AB08CE290E0FC018081898389818D3029F456
S1131AC08CE290E02AE0FC0120838CE290E0298102
S1131AD0FC01208380918200882349F58981803329
S1131AE018F189818A3300F580917E0090917F00FE
S1131AF0880F991F9C01220F331F220F331F820F5F
S1131B00931F90937F0080937E0089810E94FA093D
S1131B109C0180917E0090917F00820F931F90938F
S1131B207F0080937E0003C081E0809382008091D7
S1131B308200813051F48981882F90E00E947C09D1
S1131B408093E00082E08093820080918200823062
S1131B5009F09BC08981803318F189818A3300F5AB
S1131B608091800090918100880F991F9C01220F21
S1131B70331F220F331F820F931F90938100809392
S1131B80800089810E94FA099C01809180009091D3
S1131B908100820F931F909381008093800075C011
S1131BA089818D3009F071C010928A0010928900E9
S1131BB010928B008091E000833091F4809180003A
S1131BC090918100009761F4109288001092870030
S1131BD0109286001092850081E080938B004BC0A8
S1131BE040918000509181008091E000282F30E0E6
S1131BF080917E0090917F00B9010E94A909909381
S1131C0088008093870040918000509181008091EA
S1131C10E000282F30E080917E0090917F00B90190
S1131C200E94A90990938600809385008091870083
S1131C3090918800992374F481E0809389008091C5
S1131C4087009091880091958195910990938800DF
S1131C508093870080918700909188008031F7E21B
S1131C609F074CF08FE097E2909388008093870061
S1131C7081E080938A001092820010927F0010927B
S1131C807E0010928100109280000F90DF91CF911E
S1131C90FF91EF91BF91AF919F918F917F916F9140
S1131CA05F914F913F912F910F9000925F000F90A1
S1131CB01F901895CF93DF93CDB7DEB788E390E0FC
S1131CC028E330E0F90120812F7BFC01208388E3A5
S1131CD090E028E330E0F90120812F77FC01208394
S1131CE080918900882349F088E390E028E330E07C
S1131CF0F90120812064FC01208380918A008823DB
S1131D0049F088E390E028E330E0F901208120687D
S1131D10FC01208382E390E0FC01108285E390E0E3
S1131D20FC01108282E390E022E330E0F90120819B
S1131D302C63FC01208380918300909184000097A0
S1131D40E9F482E390E022E330E0F90120812F7D81
S1131D50FC01208325E330E0809187009091880086
S1131D6048EE53E0BA010E94F510AB01CA01805A53
S1131D709F4FFC018081F901808373C080918300AF
S1131D80909184008130910511F582E390E022E383
S1131D9030E0F90120812F7EFC01208325E330E02F
S1131DA0809187009091880048EE53E0BA010E9428
S1131DB0F51044E650E0BA010E94F510AB01CA01E7
S1131DC0805A9F4FFC018081F90180834AC0809131
S1131DD08300909184008230910511F582E390E0B4
S1131DE022E330E0F9012081277FFC01208325E3F1
S1131DF030E0809187009091880044E650E0BA0179
S1131E000E94F5104AE050E0BA010E94F510AB01BF
S1131E10CA01805A9F4FFC018081F901808321C04F
S1131E20809183009091840083309105D1F482E302
S1131E3090E022E330E0F90120812B7FFC01208334
S1131E4025E330E080918700909188004AE050E0DB
S1131E50BA010E94F510805A9F4FFC018081F9015C
S1131E6080838091830090918400019690938400F4
S1131E7080938300809183009091840083709927DC
S1131E80009721F41092840010928300DF91CF9187
S1131E9008950F931F93CF93DF93CDB7DEB787E3F6
S1131EA090E02FEFFC0120830E94940181E00E94C6
S1131EB0570187E690E00E94080A78940E94D808A7
S1131EC084E390E02FEFFC01208381E390E02FEF87
S1131ED0FC01208301E010E020E030E042E350E028
S1131EE060E070E084E39AE00E9444080E94C10824
S1131EF00E94230980E090E0DF91CF911F910F9120
S1131F00089597D008F481E008950CD0CDC0C5D0D1
S1131F1040F0BCD030F021F45F3F19F0AEC0511155
S1131F20F7C0B1C0D2D098F39923C9F35523B1F3C4
S1131F30951B550BBB27AA2762177307840738F034
S1131F409F5F5F4F220F331F441FAA1FA9F333D093
S1131F500E2E3AF0E0E830D091505040E695001C47
S1131F60CAF729D0FE2F27D0660F771F881FBB1F03
S1131F70261737074807AB07B0E809F0BB0B802DDD
S1131F80BF01FF2793585F4F2AF09E3F510568F029
S1131F9074C0BEC05F3FECF3983EDCF38695779542
S1131FA06795B795F7959F5FC9F7880F911D96952B
S1131FB0879597F90895E1E0660F771F881FBB1F87
S1131FC0621773078407BA0720F0621B730B840B34
S1131FD0BA0BEE1F88F7E09508957FD088F09F57DD
S1131FE090F0B92F9927B751A0F0D1F0660F771F61
S1131FF0881F991F1AF0BA95C9F712C0B13081F041
S113200086D0B1E0089583C0672F782F8827B85F02
S113201039F0B93FCCF3869577956795B395D9F7A1
S11320203EF490958095709561957F4F8F4F9F4FAB
S11320300895990F0008550FAA0BE0E8FEEF161655
S11320401706E807F907C0F012161306E407F507A8
S113205098F0621B730B840B950B39F40A2661F01C
S1132060232B242B252B21F408950A2609F4A140BF
S1132070A6958FEF811D811D089597F99F6780E8CC
S113208070E060E008959FEF80EC089500240A94C6
S11320901616170618060906089500240A9412163F
S11320A01306140605060895092E0394000C11F472
S11320B0882352F0BB0F40F4BF2B11F460FF04C01F
S11320C06F5F7F4F8F4F9F4F089557FD9058440F78
S11320D0551F59F05F3F71F04795880F97FB991F83
S11320E061F09F3F79F08795089512161306140640
S11320F0551FF2CF4695F1DF08C0161617061806CD
S1132100991FF1CF86957105610508940895E894A7
S1132110BB2766277727CB0197F908958ADF08F450
S11321208FEF08950BD0C0CFB1DF28F0B6DF18F0E1
S1132130952309F0A2CFA7CF1124EACFC6DFA0F3DD
S1132140959FD1F3950F50E0551F629FF001729F48
S1132150BB27F00DB11D639FAA27F00DB11DAA1F67
S1132160649F6627B00DA11D661F829F2227B00DB4
S1132170A11D621F739FB00DA11D621F839FA00D3F
S1132180611D221F749F3327A00D611D231F849F8F
S1132190600D211D822F762F6A2F11249F575040E6
S11321A08AF0E1F088234AF0EE0FFF1FBB1F661F81
S11321B0771F881F91505040A9F79E3F510570F03A
S11321C05CCFA6CF5F3FECF3983EDCF38695779522
S11321D06795B795F795E7959F5FC1F7FE2B880F35
S11321E0911D9695879597F9089597FB072E16F4F8
S11321F0009407D077FD09D00E94091107FC05D08F
S11322003EF4909581959F4F0895709561957F4F09
S11322100895AA1BBB1B51E107C0AA1FBB1FA61729
S1132220B70710F0A61BB70B881F991F5A95A9F77B
S111223080959095BC01CD010895F894FFCFE0
S113223EC0F9A4B0999282F88090FFFFFFFF37385F
S111224E392B3435362A31323353303D435266
S9030000FC
