S00D00006C616273362E737265633F
S11300000C942A000C9447000C9447000C9447006D
S11300100C9447000C9447000C9447000C94470040
S11300200C9447000C9447000C9449000C9447002E
S11300300C9447000C9447000C9447000C94470020
S11300400C9447000C9447000C9447000C94470010
S11300500C94470011241FBECFE5D8E0DEBFCDBF0E
S113006010E0A0E6B0E0ECE6F7E002C005900D92E7
S1130070AE36B107D9F720E0AEE6B0E001C01D927C
S1130080A03CB207E1F70E9457030C94B4030C940C
S113009000001F920F9200905F000F9211242F9383
S11300A03F938F939F93EF93FF93CF93DF9300D06E
S11300B01F92CDB7DEB719826CC08981882F90E07A
S11300C0880F991F880F991F880F991F80599F4F78
S11300D09B838A838A819B81FC018281938100971F
S11300E069F18A819B81FC01848195819C01215065
S11300F031098A819B81FC01358324838A819B8118
S1130100FC0184819581009709F040C08A819B811C
S1130110FC01228133818A819B81FC013583248304
S11301208A819B81FC01868197819C012F5F3F4FCF
S11301308A819B81FC013783268328C08A819B8125
S1130140FC0184819581009709F18A819B81FC01DE
S1130150848195819C01215031098A819B81FC0114
S1130160358324838A819B81FC0184819581009756
S113017069F48A819B81FC01868197819C012F5FB0
S11301803F4F8A819B81FC013783268389818F5F5E
S1130190898380916E009981981708F48ECF0F900F
S11301A00F900F90DF91CF91FF91EF919F918F91DD
S11301B03F912F910F9000925F000F901F90189520
S11301C00F931F93CF93DF93CDB7DEB72A970FB664
S11301D0F894DEBF0FBECDBF9A8389834B835C83C3
S11301E06D837E830F83188729873A8780916E00F9
S11301F0882F90E001968A3091050CF053C0F89452
S113020080916E00882F90E0880F991F880F991FA6
S1130210880F991F80599F4F29813A81FC013183AE
S1130220208380916E00882F90E02B813C81880F81
S1130230991F880F991F880F991F8C589F4FFC0195
S11302403183208380916E00882F90E0880F991F5E
S1130250880F991F880F991F8A589F4FFC0111829C
S1130260108240916E00242F30E08F819885A985FB
S1130270BA850097A105B10519F08B819C8102C054
S113028080E090E0220F331F220F331F220F331F11
S11302902E583F4FF90191838083842F8F5F809381
S11302A06E0078942A960FB6F894DEBF0FBECDBFC9
S11302B0DF91CF911F910F910895CF93DF93CDB725
S11302C0DEB789E590E022E0FC01208383E590E03D
S11302D023E0FC0120838CE590E02AEFFC012083DD
S11302E07894DF91CF910895CF93DF931F92CDB788
S11302F0DEB710926E0019823BC08981882F90E08E
S1130300880F991F880F991F880F991F80599F4F35
S1130310FC01118210828981882F90E0880F991F37
S1130320880F991F880F991F8E589F4FFC011182C7
S113033010828981882F90E0880F991F880F991F58
S1130340880F991F8C589F4FFC011182108289815C
S1130350882F90E0880F991F880F991F880F991F85
S11303608A589F4FFC011182108289818F5F898393
S113037089818A3010F20F90DF91CF910895CF9345
S1130380DF931F92CDB7DEB74AC0198242C089817C
S1130390882F90E0880F991F880F991F880F991F45
S11303A08A589F4FFC0180819181009779F189815E
S11303B0882F90E0880F991F880F991F880F991F25
S11303C080599F4FFC0180819181FC010995F8942B
S11303D08981882F90E09C01220F331F220F331F45
S11303E0220F331F2A583F4FF901208131812150B8
S11303F03109880F991F880F991F880F991F8A58F0
S11304009F4FFC0131832083789409C089818F5FD9
S1130410898380916E009981981708F4B8CF8091F0
S11304206E00882309F0B1CF0F90DF91CF9108952A
S1130430CF93DF9300D000D0CDB7DEB785E390E053
S1130440FC01108284E390E02FE0FC01208385E32B
S113045090E020EFFC0120831A82198205C0898173
S11304609A8101969A83898389819A818031910541
S1130470B4F383E390E0FC018081803E39F483E0AF
S113048090E090936B0080936A002BC083E390E02C
S1130490FC018081803D39F482E090E090936B0010
S11304A080936A001EC083E390E0FC018081803B5E
S11304B039F481E090E090936B0080936A0011C05E
S11304C083E390E0FC018081803729F410926B0073
S11304D010926A0006C08FEF9FEF90936B00809399
S11304E06A0085E390E0FC01108284E390E020EF51
S11304F0FC01208385E390E02FE0FC0120831C8233
S11305001B8205C08B819C8101969C838B838B818C
S11305109C8180319105B4F383E390E0FC018081F8
S11305208E3039F483E090E090936D0080936C00FA
S11305302BC083E390E0FC0180818D3039F482E0AC
S113054090E090936D0080936C001EC083E390E074
S1130550FC0180818B3039F481E090E090936D0050
S113056080936C0011C083E390E0FC0180818730AC
S113057029F410926D0010926C0006C08FEF9FEF6B
S113058090936D0080936C000F900F900F900F90DC
S1130590DF91CF910895CF93DF9300D0CDB7DEB72D
S11305A088E390E02FEFFC0120838BE390E02FEFB2
S11305B0FC01208380916A0090916B008F3FFFEFD4
S11305C09F0709F46EC080916C0090916D008F3F7D
S11305D02FEF920709F465C080916A0090916B0037
S11305E09C01220F331F220F331F80916C009091C6
S11305F06D00820F931F01969A83898380916F0007
S1130600882359F488E390E02EEFFC0120838BE3E8
S113061090E022E1FC01208337C080916F0081309B
S113062099F180916F008230B9F488E390E02BEF68
S1130630FC0120832BE330E089819A814AE050E079
S1130640BA010E948C03AB01CA01805A9F4FFC017E
S11306508081F901808318C080916F008330A1F4F8
S113066088E390E027EFFC0120832BE330E08981CD
S11306709A814AE050E0BA010E948C03805A9F4F4D
S1130680FC018081F901808380916F008F5F8093EA
S11306906F0080916F008370882321F410926F00A3
S11306A001C000000F900F90DF91CF9108950F9338
S11306B01F93CF93DF93CDB7DEB78AE390E02FEF9C
S11306C0FC01208387E390E02FEFFC0120830E944C
S11306D0740101E010E020E030E042E350E060E02B
S11306E070E088E192E00E94E00001E010E020E088
S11306F030E044E050E060E070E08BEC92E00E9477
S1130700E0000E945D010E94BF0180E090E0DF9163
S1130710CF911F910F91089597FB072E16F4009423
S113072007D077FD09D00E94A00307FC05D03EF452
S1130730909581959F4F0895709561957F4F089589
S1130740AA1BBB1B51E107C0AA1FBB1FA617B707F3
S113075010F0A61BB70B881F991F5A95A9F780950F
S10F07609095BC01CD010895F894FFCFE2
S111076CC0F9A4B0999282F88090FFFFFFFFBD
S9030000FC
