S01100005363686564756C65722E7372656374
S11300000C942A000C943C000C943C000C943C008E
S11300100C943C000C943C000C943C000C943C006C
S11300200C943C000C943C000C943E000C943C005A
S11300300C943C000C943C000C943C000C943C004C
S11300400C943C000C943C000C943C000C943C003C
S11300500C943C0011241FBECFE5D8E0DEBFCDBF19
S113006020E0A0E6B0E001C01D92A13BB207E1F799
S11300700E9451020C9499020C9400001F920F925A
S113008000905F000F9211242F933F938F939F93BF
S1130090EF93FF93CF93DF9300D01F92CDB7DEB7DA
S11300A019826CC08981882F90E0880F991F880F6E
S11300B0991F880F991F8F599F4F9B838A838A8129
S11300C09B81FC0182819381009769F18A819B81E4
S11300D0FC01848195819C01215031098A819B8195
S11300E0FC01358324838A819B81FC018481958171
S11300F0009709F040C08A819B81FC0122813381F1
S11301008A819B81FC01358324838A819B81FC0144
S1130110868197819C012F5F3F4F8A819B81FC01DF
S11301203783268328C08A819B81FC018481958141
S1130130009709F18A819B81FC01848195819C014E
S1130140215031098A819B81FC01358324838A8172
S11301509B81FC0184819581009769F48A819B814C
S1130160FC01868197819C012F5F3F4F8A819B818F
S1130170FC013783268389818F5F898380916000A6
S11301809981981708F48ECF0F900F900F90DF91FC
S1130190CF91FF91EF919F918F913F912F910F906C
S11301A000925F000F901F9018950F931F93CF93A9
S11301B0DF93CDB7DEB72A970FB6F894DEBF0FBE34
S11301C0CDBF9A8389834B835C836D837E830F8346
S11301D0188729873A8780916000882F90E00196DC
S11301E08A3091050CF053C0F89480916000882FF8
S11301F090E0880F991F880F991F880F991F8F59B6
S11302009F4F29813A81FC013183208380916000D2
S1130210882F90E02B813C81880F991F880F991FAC
S1130220880F991F8B599F4FFC0131832083809144
S11302306000882F90E0880F991F880F991F880FFE
S1130240991F89599F4FFC011182108240916000CF
S1130250242F30E08F819885A985BA850097A10560
S1130260B10519F08B819C8102C080E090E0220FDF
S1130270331F220F331F220F331F2D593F4FF90114
S113028091838083842F8F5F8093600078942A9673
S11302900FB6F894DEBF0FBECDBFDF91CF911F9193
S11302A00F910895CF93DF93CDB7DEB789E590E042
S11302B022E0FC01208383E590E023E0FC0120831D
S11302C08CE590E02AEFFC0120837894DF91CF91B4
S11302D00895CF93DF931F92CDB7DEB710926000DD
S11302E019823BC08981882F90E0880F991F880F5D
S11302F0991F880F991F8F599F4FFC0111821082FB
S11303008981882F90E0880F991F880F991F880F83
S1130310991F8D599F4FFC01118210828981882F6A
S113032090E0880F991F880F991F880F991F8B5988
S11303309F4FFC01118210828981882F90E0880FE1
S1130340991F880F991F880F991F89599F4FFC0186
S11303501182108289818F5F898389818A3010F2AA
S11303600F90DF91CF910895CF93DF931F92CDB774
S1130370DEB74AC0198242C08981882F90E0880F75
S1130380991F880F991F880F991F89599F4FFC0146
S113039080819181009779F18981882F90E0880F7D
S11303A0991F880F991F880F991F8F599F4FFC0120
S11303B080819181FC010995F8948981882F90E0CE
S11303C09C01220F331F220F331F220F331F295981
S11303D03F4FF9012081318121503109880F991F44
S11303E0880F991F880F991F89599F4FFC013183EA
S11303F02083789409C089818F5F8983809160000C
S11304009981981708F4B8CF80916000882309F087
S1130410B1CF0F90DF91CF910895CF93DF93CDB7F4
S1130420DEB78BE390E02BE330E0F901308121E08B
S11304302327FC012083DF91CF910895CF93DF938D
S1130440CDB7DEB78BE390E02BE330E0F9013081E8
S113045022E02327FC012083DF91CF910895CF93DD
S1130460DF93CDB7DEB78BE390E02BE330E0F90107
S1130470308124E02327FC012083DF91CF9108956C
S1130480CF93DF93CDB7DEB78BE390E02BE330E07F
S1130490F901308128E02327FC012083DF91CF91EB
S11304A008950F931F93CF93DF93CDB7DEB78AE3FD
S11304B090E02FEFFC0120830E94690101E010E02D
S11304C020E030E040ED57E060E070E08DE092E045
S11304D00E94D50001E010E020E030E048EE53E057
S11304E060E070E08EE192E00E94D50001E010E04F
S11304F020E030E044EF51E060E070E08FE292E011
S11305000E94D50001E010E020E030E04AEF50E026
S113051060E070E080E492E00E94D5000E94520105
S11305200E94B40180E090E0DF91CF911F910F9180
S10905300895F894FFCFCA
S9030000FC
