S00D00006C616273342E7372656341
S11300000C942A000C9434000C9434000C943400A6
S11300100C9434000C9434000C9434000C9434008C
S11300200C9434000C9434000C9434000C9434007C
S11300300C9434000C9434000C9434000C9434006C
S11300400C9434000C9434000C9434000C9434005C
S11300500C94340011241FBECFE5D8E0DEBFCDBF21
S11300600E9457000C94F8010C940000CF93DF9386
S1130070CDB7DEB783E590E023E530E0F9012081D8
S11300802966FC012083DF91CF910895CF93DF93FC
S113009000D0CDB7DEB79A8389838CE590E02981BF
S11300A0FC0120830F900F90DF91CF9108950F935F
S11300B01F93CF93DF93CDB7DEB72F970FB6F89486
S11300C0DEBF0FBECDBF0E94360087E390E02FEF66
S11300D0FC01208319828981882F90E00E944600C8
S11300E080E090E0A8ECB2E48A839B83AC83BD8378
S11300F020E030E04AE753E46A817B818C819D8172
S11301000E946D01DC01CB018E839F83A887B98790
S113011020E030E040E85FE36E817F818885998547
S11301200E94EC0088232CF481E090E09B878A876E
S113013042C020E03FEF4FE757E46E817F8188851E
S113014099850E946901181664F520E030E040E2C8
S113015051E46A817B818C819D810E946D01DC0167
S1130160CB01BC01CD010E94F000DC01CB019B87D7
S11301708A8712C089E190E09D878C878C859D8554
S11301808C01C8010197F1F78C011D870C878A85C2
S11301909B8501979B878A878A859B85009751F762
S11301A017C06E817F81888599850E94F000DC01EB
S11301B0CB019B878A878A859B859F878E878E85BF
S11301C09F858C01F8013197F1F78F011F870E8706
S11301D089818F5F89837FCF2FD008F481E00895D0
S11301E057D088F09F5790F0B92F9927B751A0F0B6
S11301F0D1F0660F771F881F991F1AF0BA95C9F7B7
S113020012C0B13081F05ED0B1E008955BC0672FB9
S1130210782F8827B85F39F0B93FCCF38695779566
S11302206795B395D9F73EF490958095709561954F
S11302307F4F8F4F9F4F0895990F0008550FAA0BBA
S1130240E0E8FEEF16161706E807F907C0F01216E5
S11302501306E407F50798F0621B730B840B950BE8
S113026039F40A2661F0232B242B252B21F408953D
S11302700A2609F4A140A6958FEF811D811D0895DA
S113028057FD9058440F551F59F05F3F71F0479543
S1130290880F97FB991F61F09F3F79F08795089528
S11302A0121613061406551FF2CF4695F1DF08C047
S11302B0161617061806991FF1CF86957105610564
S11302C008940895E894BB2766277727CB0197F90C
S11302D00895B2DF08F48FEF08950BD078C069D089
S11302E028F06ED018F0952309F05AC05FC011248D
S11302F0EACFC6DFA0F3959FD1F3950F50E0551FC9
S1130300629FF001729FBB27F00DB11D639FAA2766
S1130310F00DB11DAA1F649F6627B00DA11D661FB5
S1130320829F2227B00DA11D621F739FB00DA11DD6
S1130330621F839FA00D611D221F749F3327A00D90
S1130340611D231F849F600D211D822F762F6A2F2C
S113035011249F5750408AF0E1F088234AF0EE0FB1
S1130360FF1FBB1F661F771F881F91505040A9F7BE
S11303709E3F510570F014C0A6CF5F3FECF3983E4A
S1130380DCF3869577956795B795F795E7959F5F25
S1130390C1F7FE2B880F911D9695879597F90895BF
S11303A097F99F6780E870E060E008959FEF80EC24
S11303B0089500240A9416161706180609060895C7
S11303C000240A9412161306140605060895092E2D
S11303D00394000C11F4882352F0BB0F40F4BF2B9C
S11303E011F460FF04C06F5F7F4F8F4F9F4F0895DC
S10703F0F894FFCFAB
S9030000FC
